{
  "contractName": "BuzzerangB4",
  "abi": [
    {
      "inputs": [
        {
          "internalType": "address payable",
          "name": "buzzAddress",
          "type": "address"
        },
        {
          "internalType": "uint256",
          "name": "buzzId",
          "type": "uint256"
        },
        {
          "internalType": "string",
          "name": "buzzUsername",
          "type": "string"
        },
        {
          "internalType": "address",
          "name": "busdAddess",
          "type": "address"
        }
      ],
      "stateMutability": "nonpayable",
      "type": "constructor"
    },
    {
      "anonymous": false,
      "inputs": [
        {
          "indexed": false,
          "internalType": "uint256",
          "name": "userId",
          "type": "uint256"
        },
        {
          "indexed": false,
          "internalType": "uint256",
          "name": "fromId",
          "type": "uint256"
        },
        {
          "indexed": false,
          "internalType": "uint8",
          "name": "slot",
          "type": "uint8"
        }
      ],
      "name": "ExtraSlot",
      "type": "event"
    },
    {
      "anonymous": false,
      "inputs": [
        {
          "indexed": false,
          "internalType": "uint256",
          "name": "userId",
          "type": "uint256"
        },
        {
          "indexed": false,
          "internalType": "uint32",
          "name": "period",
          "type": "uint32"
        },
        {
          "indexed": false,
          "internalType": "uint8",
          "name": "slot",
          "type": "uint8"
        }
      ],
      "name": "Membership",
      "type": "event"
    },
    {
      "anonymous": false,
      "inputs": [
        {
          "indexed": false,
          "internalType": "uint256",
          "name": "userId",
          "type": "uint256"
        },
        {
          "indexed": false,
          "internalType": "uint256",
          "name": "fromId",
          "type": "uint256"
        },
        {
          "indexed": false,
          "internalType": "uint8",
          "name": "slot",
          "type": "uint8"
        }
      ],
      "name": "MissedSlot",
      "type": "event"
    },
    {
      "anonymous": false,
      "inputs": [
        {
          "indexed": false,
          "internalType": "uint256",
          "name": "userId",
          "type": "uint256"
        },
        {
          "indexed": false,
          "internalType": "uint256",
          "name": "parentId",
          "type": "uint256"
        },
        {
          "indexed": false,
          "internalType": "uint8",
          "name": "slot",
          "type": "uint8"
        },
        {
          "indexed": false,
          "internalType": "uint256",
          "name": "position",
          "type": "uint256"
        }
      ],
      "name": "Placement",
      "type": "event"
    },
    {
      "anonymous": false,
      "inputs": [
        {
          "indexed": false,
          "internalType": "uint256",
          "name": "userId",
          "type": "uint256"
        },
        {
          "indexed": false,
          "internalType": "uint256",
          "name": "sponsorId",
          "type": "uint256"
        }
      ],
      "name": "Registration",
      "type": "event"
    },
    {
      "anonymous": false,
      "inputs": [
        {
          "indexed": false,
          "internalType": "uint256",
          "name": "userId",
          "type": "uint256"
        },
        {
          "indexed": false,
          "internalType": "uint256",
          "name": "membership",
          "type": "uint256"
        },
        {
          "indexed": false,
          "internalType": "uint256",
          "name": "time",
          "type": "uint256"
        }
      ],
      "name": "Renew",
      "type": "event"
    },
    {
      "anonymous": false,
      "inputs": [
        {
          "indexed": false,
          "internalType": "uint256",
          "name": "userId",
          "type": "uint256"
        },
        {
          "indexed": false,
          "internalType": "uint256",
          "name": "sponsorId",
          "type": "uint256"
        },
        {
          "indexed": false,
          "internalType": "uint8",
          "name": "slot",
          "type": "uint8"
        }
      ],
      "name": "Upgrade",
      "type": "event"
    },
    {
      "anonymous": false,
      "inputs": [
        {
          "indexed": false,
          "internalType": "string",
          "name": "username",
          "type": "string"
        },
        {
          "indexed": true,
          "internalType": "address",
          "name": "userAddress",
          "type": "address"
        }
      ],
      "name": "Username",
      "type": "event"
    },
    {
      "stateMutability": "payable",
      "type": "fallback"
    },
    {
      "inputs": [],
      "name": "LAST_SLOT",
      "outputs": [
        {
          "internalType": "uint8",
          "name": "",
          "type": "uint8"
        }
      ],
      "stateMutability": "view",
      "type": "function"
    },
    {
      "inputs": [
        {
          "internalType": "uint8",
          "name": "",
          "type": "uint8"
        }
      ],
      "name": "b4Percentage",
      "outputs": [
        {
          "internalType": "uint8",
          "name": "",
          "type": "uint8"
        }
      ],
      "stateMutability": "view",
      "type": "function"
    },
    {
      "inputs": [
        {
          "internalType": "uint8",
          "name": "",
          "type": "uint8"
        }
      ],
      "name": "b4buzzPercentage",
      "outputs": [
        {
          "internalType": "uint8",
          "name": "",
          "type": "uint8"
        }
      ],
      "stateMutability": "view",
      "type": "function"
    },
    {
      "inputs": [],
      "name": "buzz",
      "outputs": [
        {
          "internalType": "address payable",
          "name": "",
          "type": "address"
        }
      ],
      "stateMutability": "view",
      "type": "function"
    },
    {
      "inputs": [],
      "name": "buzzerangAddress",
      "outputs": [
        {
          "internalType": "address",
          "name": "",
          "type": "address"
        }
      ],
      "stateMutability": "view",
      "type": "function"
    },
    {
      "inputs": [
        {
          "internalType": "uint256",
          "name": "",
          "type": "uint256"
        }
      ],
      "name": "idToAddress",
      "outputs": [
        {
          "internalType": "address",
          "name": "",
          "type": "address"
        }
      ],
      "stateMutability": "view",
      "type": "function"
    },
    {
      "inputs": [],
      "name": "lastUserId",
      "outputs": [
        {
          "internalType": "uint256",
          "name": "",
          "type": "uint256"
        }
      ],
      "stateMutability": "view",
      "type": "function"
    },
    {
      "inputs": [
        {
          "internalType": "uint8",
          "name": "",
          "type": "uint8"
        }
      ],
      "name": "membershipPay",
      "outputs": [
        {
          "internalType": "uint256",
          "name": "",
          "type": "uint256"
        }
      ],
      "stateMutability": "view",
      "type": "function"
    },
    {
      "inputs": [
        {
          "internalType": "uint8",
          "name": "",
          "type": "uint8"
        }
      ],
      "name": "membershipPrice",
      "outputs": [
        {
          "internalType": "uint256",
          "name": "",
          "type": "uint256"
        }
      ],
      "stateMutability": "view",
      "type": "function"
    },
    {
      "inputs": [
        {
          "internalType": "uint8",
          "name": "",
          "type": "uint8"
        }
      ],
      "name": "slotPrice",
      "outputs": [
        {
          "internalType": "uint256",
          "name": "",
          "type": "uint256"
        }
      ],
      "stateMutability": "view",
      "type": "function"
    },
    {
      "inputs": [
        {
          "internalType": "address",
          "name": "",
          "type": "address"
        }
      ],
      "name": "users",
      "outputs": [
        {
          "internalType": "uint256",
          "name": "id",
          "type": "uint256"
        },
        {
          "internalType": "address",
          "name": "sponsor",
          "type": "address"
        },
        {
          "internalType": "address",
          "name": "buzzVault",
          "type": "address"
        }
      ],
      "stateMutability": "view",
      "type": "function"
    },
    {
      "inputs": [],
      "name": "vaultAddress",
      "outputs": [
        {
          "internalType": "address",
          "name": "",
          "type": "address"
        }
      ],
      "stateMutability": "view",
      "type": "function"
    },
    {
      "inputs": [
        {
          "internalType": "address",
          "name": "sponsorAddress",
          "type": "address"
        },
        {
          "internalType": "uint256",
          "name": "userId",
          "type": "uint256"
        },
        {
          "internalType": "string",
          "name": "username",
          "type": "string"
        }
      ],
      "name": "registrationExt",
      "outputs": [
        {
          "internalType": "bool",
          "name": "",
          "type": "bool"
        }
      ],
      "stateMutability": "payable",
      "type": "function"
    },
    {
      "inputs": [
        {
          "internalType": "uint8",
          "name": "membership",
          "type": "uint8"
        }
      ],
      "name": "activationExt",
      "outputs": [
        {
          "internalType": "bool",
          "name": "",
          "type": "bool"
        }
      ],
      "stateMutability": "payable",
      "type": "function"
    },
    {
      "inputs": [
        {
          "internalType": "uint8",
          "name": "membership",
          "type": "uint8"
        }
      ],
      "name": "activationVault",
      "outputs": [
        {
          "internalType": "uint256",
          "name": "",
          "type": "uint256"
        }
      ],
      "stateMutability": "payable",
      "type": "function"
    },
    {
      "inputs": [
        {
          "internalType": "uint8",
          "name": "membership",
          "type": "uint8"
        }
      ],
      "name": "activationVaultExt",
      "outputs": [
        {
          "internalType": "bool",
          "name": "",
          "type": "bool"
        }
      ],
      "stateMutability": "payable",
      "type": "function"
    },
    {
      "inputs": [
        {
          "internalType": "address",
          "name": "userAddress",
          "type": "address"
        },
        {
          "internalType": "uint8",
          "name": "slot",
          "type": "uint8"
        }
      ],
      "name": "buySlotCreator",
      "outputs": [
        {
          "internalType": "string",
          "name": "",
          "type": "string"
        }
      ],
      "stateMutability": "nonpayable",
      "type": "function"
    },
    {
      "inputs": [
        {
          "internalType": "uint8",
          "name": "slot",
          "type": "uint8"
        }
      ],
      "name": "buyNewSlot",
      "outputs": [
        {
          "internalType": "string",
          "name": "",
          "type": "string"
        }
      ],
      "stateMutability": "payable",
      "type": "function"
    },
    {
      "inputs": [
        {
          "internalType": "address",
          "name": "userAddress",
          "type": "address"
        },
        {
          "internalType": "uint8",
          "name": "slot",
          "type": "uint8"
        }
      ],
      "name": "findFreeB4Sponsor",
      "outputs": [
        {
          "internalType": "address",
          "name": "",
          "type": "address"
        }
      ],
      "stateMutability": "nonpayable",
      "type": "function"
    },
    {
      "inputs": [
        {
          "internalType": "address",
          "name": "user",
          "type": "address"
        }
      ],
      "name": "isUserExists",
      "outputs": [
        {
          "internalType": "bool",
          "name": "",
          "type": "bool"
        }
      ],
      "stateMutability": "view",
      "type": "function"
    },
    {
      "inputs": [
        {
          "internalType": "address",
          "name": "userAddress",
          "type": "address"
        },
        {
          "internalType": "uint8",
          "name": "membership",
          "type": "uint8"
        }
      ],
      "name": "getMembershipBalance",
      "outputs": [
        {
          "internalType": "uint256",
          "name": "",
          "type": "uint256"
        }
      ],
      "stateMutability": "view",
      "type": "function"
    },
    {
      "inputs": [
        {
          "internalType": "uint256",
          "name": "id",
          "type": "uint256"
        }
      ],
      "name": "getTotalBalance",
      "outputs": [
        {
          "internalType": "uint256",
          "name": "totalBalance",
          "type": "uint256"
        }
      ],
      "stateMutability": "view",
      "type": "function"
    }
  ],
  "bytecode": "0x608060405264037e11d6006007556005600960146101000a81548160ff021916908360ff16021790555060016010556000601155670de0b6b3a76400006013553480156200004c57600080fd5b5060405162006cca38038062006cca833981810160405260808110156200007257600080fd5b81019080805190602001909291908051906020019092919080516040519392919084640100000000821115620000a757600080fd5b83820191506020820185811115620000be57600080fd5b8251866001820283011164010000000082111715620000dc57600080fd5b8083526020830192505050908051906020019080838360005b8381101562000112578082015181840152602081019050620000f5565b50505050905090810190601f168015620001405780820380516001836020036101000a031916815260200191505b5060405260200180519060200190929190505050600160008190555060006001819055506702c68af0bb14000060046000600160ff168152602001908152602001600020819055506705698eef0667000060046000600260ff16815260200190815260200160002081905550670ad31dde0cce000060046000600360ff168152602001908152602001600020819055506715a63bbc199c000060046000600460ff16815260200190815260200160002081905550672b6ffe6aa2f9000060046000600560ff1681526020019081526020016000208190555060646013546101f302816200022957fe5b0460146000600160ff1681526020019081526020016000208190555060646013546103e702816200025657fe5b0460146000600260ff168152602001908152602001600020819055506064601354610f9f02816200028357fe5b0460146000600360ff168152602001908152602001600020819055506064601354611f3f0281620002b057fe5b0460146000600460ff16815260200190815260200160002081905550606460135461752f0281620002dd57fe5b0460146000600560ff1681526020019081526020016000208190555060646013546101f302816200030a57fe5b0460026000600160ff1681526020019081526020016000208190555060646013546103e702816200033757fe5b0460026000600260ff168152602001908152602001600020819055506064601354610f9f02816200036457fe5b0460026000600360ff168152602001908152602001600020819055506064601354611f3f02816200039157fe5b0460026000600460ff16815260200190815260200160002081905550606460135461752f0281620003be57fe5b0460026000600560ff1681526020019081526020016000208190555067049dde921f47aaaa60036000600160ff1681526020019081526020016000208190555067093e1b78ac69000060036000600260ff168152602001908152602001600020819055506724ff88dffb31000060036000600360ff16815260200190815260200160002081905550674a017014643baaaa60036000600460ff168152602001908152602001600020819055506801158be7b4a5f6555560036000600560ff168152602001908152602001600020819055506740a22bfdb5eb555660056000600160ff1681526020019081526020016000208190555067816580996dbe000060056000600260ff16815260200190815260200160002081905550680205f97c3fbcae000060056000600360ff1681526020019081526020016000208190555068040c14211d7b43555660056000600460ff16815260200190815260200160002081905550680f2da6abe11378aaab60056000600560ff168152602001908152602001600020819055506000605090506000600190505b600a8160ff1611620006955760038160ff161015620005a75780600a02601560008360ff1660ff16815260200190815260200160002060006101000a81548160ff021916908360ff16021790555062000627565b60088160ff161015620005ed576004601560008360ff1660ff16815260200190815260200160002060006101000a81548160ff021916908360ff16021790555062000626565b60078103600502601560008360ff1660ff16815260200190815260200160002060006101000a81548160ff021916908360ff1602179055505b5b601560006001830360ff1660ff16815260200190815260200160002060009054906101000a900460ff168203915081601660008360ff1660ff16815260200190815260200160002060006101000a81548160ff021916908360ff160217905550808060010191505062000553565b5084601260006101000a81548173ffffffffffffffffffffffffffffffffffffffff021916908373ffffffffffffffffffffffffffffffffffffffff16021790555084600660006101000a81548173ffffffffffffffffffffffffffffffffffffffff021916908373ffffffffffffffffffffffffffffffffffffffff16021790555060405180606001604052808581526020018673ffffffffffffffffffffffffffffffffffffffff1681526020018673ffffffffffffffffffffffffffffffffffffffff16815250600a60008773ffffffffffffffffffffffffffffffffffffffff1673ffffffffffffffffffffffffffffffffffffffff1681526020019081526020016000206000820151816000015560208201518160010160006101000a81548173ffffffffffffffffffffffffffffffffffffffff021916908373ffffffffffffffffffffffffffffffffffffffff16021790555060408201518160020160006101000a81548173ffffffffffffffffffffffffffffffffffffffff021916908373ffffffffffffffffffffffffffffffffffffffff16021790555090505084600b600086815260200190815260200160002060006101000a81548173ffffffffffffffffffffffffffffffffffffffff021916908373ffffffffffffffffffffffffffffffffffffffff16021790555084600c846040518082805190602001908083835b60208310620008c457805182526020820191506020810190506020830392506200089f565b6001836020036101000a038019825116818451168082178552505050505050905001915050908152602001604051809103902060006101000a81548173ffffffffffffffffffffffffffffffffffffffff021916908373ffffffffffffffffffffffffffffffffffffffff16021790555082600d60008773ffffffffffffffffffffffffffffffffffffffff1673ffffffffffffffffffffffffffffffffffffffff16815260200190815260200160002090805190602001906200098a92919062000c6e565b506000600190505b600960149054906101000a900460ff1660ff168160ff161162000be1576001600a60008873ffffffffffffffffffffffffffffffffffffffff1673ffffffffffffffffffffffffffffffffffffffff16815260200190815260200160002060040160008360ff1660ff16815260200190815260200160002060006101000a81548160ff02191690831515021790555085600a60008873ffffffffffffffffffffffffffffffffffffffff1673ffffffffffffffffffffffffffffffffffffffff16815260200190815260200160002060050160008360ff1660ff16815260200190815260200160002060000160006101000a81548173ffffffffffffffffffffffffffffffffffffffff021916908373ffffffffffffffffffffffffffffffffffffffff16021790555085600a60008873ffffffffffffffffffffffffffffffffffffffff1673ffffffffffffffffffffffffffffffffffffffff16815260200190815260200160002060050160008360ff1660ff16815260200190815260200160002060010160006101000a81548173ffffffffffffffffffffffffffffffffffffffff021916908373ffffffffffffffffffffffffffffffffffffffff1602179055506001600a60008873ffffffffffffffffffffffffffffffffffffffff1673ffffffffffffffffffffffffffffffffffffffff16815260200190815260200160002060050160008360ff1660ff16815260200190815260200160002060020160006101000a81548163ffffffff021916908363ffffffff160217905550808060010191505062000992565b507f0b177cf43c6a4968440afe7d8919f5d0bb61a36fd7e33c8f9297ce471f45021c846000604051808381526020018281526020019250505060405180910390a181601760006101000a81548173ffffffffffffffffffffffffffffffffffffffff021916908373ffffffffffffffffffffffffffffffffffffffff160217905550505050505062000d14565b828054600181600116156101000203166002900490600052602060002090601f016020900481019282601f1062000cb157805160ff191683800117855562000ce2565b8280016001018555821562000ce2579182015b8281111562000ce157825182559160200191906001019062000cc4565b5b50905062000cf1919062000cf5565b5090565b5b8082111562000d1057600081600090555060010162000cf6565b5090565b615fa68062000d246000396000f3fe608060405260043610610156576000357c01000000000000000000000000000000000000000000000000000000009004806378cfd3ff116100c8578063ced652fa1161008c578063ced652fa1461076a578063cf5368ed14610814578063e1e6f4ec14610859578063e4f40528146108a0578063fec146a2146108f2578063ff26c3771461092057610157565b806378cfd3ff1461052d5780638bc4a5a51461059f5780638d4de69b146105ee578063916c158f14610676578063a87430ba146106cb57610157565b8063430bf08a1161011a578063430bf08a14610356578063509222cd146103975780635131b3d4146103fe578063529c89f3146104455780635ffd5cf51461049a57806371ee283d146104db57610157565b8063243e4beb1461015c5780632a2d0c47146102335780633102cabb14610298578063348d4487146102d95780633b2a91901461030457610157565b5b600080fd5b34801561016857600080fd5b506101b86004803603604081101561017f57600080fd5b81019080803573ffffffffffffffffffffffffffffffffffffffff169060200190929190803560ff1690602001909291905050506109d9565b6040518080602001828103825283818151815260200191508051906020019080838360005b838110156101f85780820151818401526020810190506101dd565b50505050905090810190601f1680156102255780820380516001836020036101000a031916815260200191505b509250505060405180910390f35b34801561023f57600080fd5b5061026c6004803603602081101561025657600080fd5b8101908080359060200190929190505050610b52565b604051808273ffffffffffffffffffffffffffffffffffffffff16815260200191505060405180910390f35b3480156102a457600080fd5b506102ad610b85565b604051808273ffffffffffffffffffffffffffffffffffffffff16815260200191505060405180910390f35b3480156102e557600080fd5b506102ee610bab565b6040518082815260200191505060405180910390f35b34801561031057600080fd5b506103406004803603602081101561032757600080fd5b81019080803560ff169060200190929190505050610bb1565b6040518082815260200191505060405180910390f35b34801561036257600080fd5b5061036b610bc9565b604051808273ffffffffffffffffffffffffffffffffffffffff16815260200191505060405180910390f35b3480156103a357600080fd5b506103e6600480360360208110156103ba57600080fd5b81019080803573ffffffffffffffffffffffffffffffffffffffff169060200190929190505050610bef565b60405180821515815260200191505060405180910390f35b61042d6004803603602081101561041457600080fd5b81019080803560ff169060200190929190505050610c3e565b60405180821515815260200191505060405180910390f35b34801561045157600080fd5b506104816004803603602081101561046857600080fd5b81019080803560ff169060200190929190505050610dd8565b604051808260ff16815260200191505060405180910390f35b3480156104a657600080fd5b506104af610df8565b604051808273ffffffffffffffffffffffffffffffffffffffff16815260200191505060405180910390f35b3480156104e757600080fd5b50610517600480360360208110156104fe57600080fd5b81019080803560ff169060200190929190505050610e1e565b6040518082815260200191505060405180910390f35b34801561053957600080fd5b506105896004803603604081101561055057600080fd5b81019080803573ffffffffffffffffffffffffffffffffffffffff169060200190929190803560ff169060200190929190505050610e36565b6040518082815260200191505060405180910390f35b3480156105ab57600080fd5b506105d8600480360360208110156105c257600080fd5b8101908080359060200190929190505050610f4d565b6040518082815260200191505060405180910390f35b3480156105fa57600080fd5b5061064a6004803603604081101561061157600080fd5b81019080803573ffffffffffffffffffffffffffffffffffffffff169060200190929190803560ff169060200190929190505050611083565b604051808273ffffffffffffffffffffffffffffffffffffffff16815260200191505060405180910390f35b34801561068257600080fd5b506106b26004803603602081101561069957600080fd5b81019080803560ff169060200190929190505050611365565b604051808260ff16815260200191505060405180910390f35b3480156106d757600080fd5b5061071a600480360360208110156106ee57600080fd5b81019080803573ffffffffffffffffffffffffffffffffffffffff169060200190929190505050611385565b604051808481526020018373ffffffffffffffffffffffffffffffffffffffff1681526020018273ffffffffffffffffffffffffffffffffffffffff168152602001935050505060405180910390f35b6107996004803603602081101561078057600080fd5b81019080803560ff1690602001909291905050506113ef565b6040518080602001828103825283818151815260200191508051906020019080838360005b838110156107d95780820151818401526020810190506107be565b50505050905090810190601f1680156108065780820380516001836020036101000a031916815260200191505b509250505060405180910390f35b6108436004803603602081101561082a57600080fd5b81019080803560ff16906020019092919050505061151c565b6040518082815260200191505060405180910390f35b6108886004803603602081101561086f57600080fd5b81019080803560ff16906020019092919050505061162f565b60405180821515815260200191505060405180910390f35b3480156108ac57600080fd5b506108dc600480360360208110156108c357600080fd5b81019080803560ff169060200190929190505050611c44565b6040518082815260200191505060405180910390f35b3480156108fe57600080fd5b50610907611c5c565b604051808260ff16815260200191505060405180910390f35b6109c16004803603606081101561093657600080fd5b81019080803573ffffffffffffffffffffffffffffffffffffffff169060200190929190803590602001909291908035906020019064010000000081111561097d57600080fd5b82018360208201111561098f57600080fd5b803590602001918460018302840111640100000000831117156109b157600080fd5b9091929391929390505050611c6f565b60405180821515815260200191505060405180910390f35b6060601260009054906101000a900473ffffffffffffffffffffffffffffffffffffffff1673ffffffffffffffffffffffffffffffffffffffff163373ffffffffffffffffffffffffffffffffffffffff1614610a81576040517f08c379a0000000000000000000000000000000000000000000000000000000008152600401808060200182810382526023815260200180615eb86023913960400191505060405180910390fd5b60026000541415610afa576040517f08c379a000000000000000000000000000000000000000000000000000000000815260040180806020018281038252601f8152602001807f5265656e7472616e637947756172643a207265656e7472616e742063616c6c0081525060200191505060405180910390fd5b6002600081905550610b0c8383611d73565b6040518060400160405280601881526020017f536c6f7420626f75676874207375636365737366756c6c7900000000000000008152509050600160008190555092915050565b600b6020528060005260406000206000915054906101000a900473ffffffffffffffffffffffffffffffffffffffff1681565b601260009054906101000a900473ffffffffffffffffffffffffffffffffffffffff1681565b60105481565b60036020528060005260406000206000915090505481565b600860009054906101000a900473ffffffffffffffffffffffffffffffffffffffff1681565b600080600a60008473ffffffffffffffffffffffffffffffffffffffff1673ffffffffffffffffffffffffffffffffffffffff1681526020019081526020016000206000015414159050919050565b600060026000541415610cb9576040517f08c379a000000000000000000000000000000000000000000000000000000000815260040180806020018281038252601f8152602001807f5265656e7472616e637947756172643a207265656e7472616e742063616c6c0081525060200191505060405180910390fd5b6002600081905550600060015414610d1c576040517f08c379a0000000000000000000000000000000000000000000000000000000008152600401808060200182810382526022815260200180615f4f6022913960400191505060405180910390fd5b3273ffffffffffffffffffffffffffffffffffffffff163373ffffffffffffffffffffffffffffffffffffffff1614610dbd576040517f08c379a000000000000000000000000000000000000000000000000000000000815260040180806020018281038252601d8152602001807f536d61727420436f6e7472616374206973206e6f7420616e207573657200000081525060200191505060405180910390fd5b610dc73283612471565b600190506001600081905550919050565b60166020528060005260406000206000915054906101000a900460ff1681565b600960009054906101000a900473ffffffffffffffffffffffffffffffffffffffff1681565b60146020528060005260406000206000915090505481565b6000600a60008473ffffffffffffffffffffffffffffffffffffffff1673ffffffffffffffffffffffffffffffffffffffff16815260200190815260200160002060020160009054906101000a900473ffffffffffffffffffffffffffffffffffffffff1673ffffffffffffffffffffffffffffffffffffffff1663c2d90e95836040518263ffffffff167c0100000000000000000000000000000000000000000000000000000000028152600401808260ff16815260200191505060206040518083038186803b158015610f0a57600080fd5b505afa158015610f1e573d6000803e3d6000fd5b505050506040513d6020811015610f3457600080fd5b8101908080519060200190929190505050905092915050565b600080600b600084815260200190815260200160002060009054906101000a900473ffffffffffffffffffffffffffffffffffffffff1690506000600190505b600381101561103d576000600190505b600960149054906101000a900460ff1660ff168160ff161161102f57600e60008473ffffffffffffffffffffffffffffffffffffffff1673ffffffffffffffffffffffffffffffffffffffff168152602001908152602001600020600083815260200190815260200160002060008260ff16815260200190815260200160002054840193508080600101915050610f9d565b508080600101915050610f8d565b506000600190505b600960149054906101000a900460ff1660ff168160ff161161107c5761106b8282610e36565b830192508080600101915050611045565b5050919050565b60005b6001156112fa57600a6000600a60008673ffffffffffffffffffffffffffffffffffffffff1673ffffffffffffffffffffffffffffffffffffffff16815260200190815260200160002060010160009054906101000a900473ffffffffffffffffffffffffffffffffffffffff1673ffffffffffffffffffffffffffffffffffffffff1673ffffffffffffffffffffffffffffffffffffffff16815260200190815260200160002060040160008360ff1660ff16815260200190815260200160002060009054906101000a900460ff1615611160576112fa565b7fd8180a40f8fb40c123122677cf894b7389e2957a65b2cab1a4ebf4dbd88299a6600a6000600a60008773ffffffffffffffffffffffffffffffffffffffff1673ffffffffffffffffffffffffffffffffffffffff16815260200190815260200160002060010160009054906101000a900473ffffffffffffffffffffffffffffffffffffffff1673ffffffffffffffffffffffffffffffffffffffff1673ffffffffffffffffffffffffffffffffffffffff16815260200190815260200160002060000154600a60008673ffffffffffffffffffffffffffffffffffffffff1673ffffffffffffffffffffffffffffffffffffffff1681526020019081526020016000206000015484604051808481526020018381526020018260ff168152602001935050505060405180910390a1600a60008473ffffffffffffffffffffffffffffffffffffffff1673ffffffffffffffffffffffffffffffffffffffff16815260200190815260200160002060010160009054906101000a900473ffffffffffffffffffffffffffffffffffffffff169250611086565b600a60008473ffffffffffffffffffffffffffffffffffffffff1673ffffffffffffffffffffffffffffffffffffffff16815260200190815260200160002060010160009054906101000a900473ffffffffffffffffffffffffffffffffffffffff16905092915050565b60156020528060005260406000206000915054906101000a900460ff1681565b600a6020528060005260406000206000915090508060000154908060010160009054906101000a900473ffffffffffffffffffffffffffffffffffffffff16908060020160009054906101000a900473ffffffffffffffffffffffffffffffffffffffff16905083565b60606002600054141561146a576040517f08c379a000000000000000000000000000000000000000000000000000000000815260040180806020018281038252601f8152602001807f5265656e7472616e637947756172643a207265656e7472616e742063616c6c0081525060200191505060405180910390fd5b60026000819055506000600154146114cd576040517f08c379a0000000000000000000000000000000000000000000000000000000008152600401808060200182810382526022815260200180615f4f6022913960400191505060405180910390fd5b6114d73383611d73565b6040518060400160405280601881526020017f536c6f7420626f75676874207375636365737366756c6c79000000000000000081525090506001600081905550919050565b6000600a60003273ffffffffffffffffffffffffffffffffffffffff1673ffffffffffffffffffffffffffffffffffffffff16815260200190815260200160002060020160009054906101000a900473ffffffffffffffffffffffffffffffffffffffff1673ffffffffffffffffffffffffffffffffffffffff163373ffffffffffffffffffffffffffffffffffffffff1614611604576040517f08c379a0000000000000000000000000000000000000000000000000000000008152600401808060200182810382526022815260200180615f046022913960400191505060405180910390fd5b61160e3283612471565b600260008360ff1660ff168152602001908152602001600020549050919050565b6000600260005414156116aa576040517f08c379a000000000000000000000000000000000000000000000000000000000815260040180806020018281038252601f8152602001807f5265656e7472616e637947756172643a207265656e7472616e742063616c6c0081525060200191505060405180910390fd5b600260008190555060006001541461170d576040517f08c379a0000000000000000000000000000000000000000000000000000000008152600401808060200182810382526022815260200180615f4f6022913960400191505060405180910390fd5b3273ffffffffffffffffffffffffffffffffffffffff163373ffffffffffffffffffffffffffffffffffffffff16146117ae576040517f08c379a000000000000000000000000000000000000000000000000000000000815260040180806020018281038252601f8152602001807f4f6e6c7920616e20757365722063616e206163746976617465207661756c740081525060200191505060405180910390fd5b6117b732610bef565b61180c576040517f08c379a0000000000000000000000000000000000000000000000000000000008152600401808060200182810382526029815260200180615f266029913960400191505060405180910390fd5b600960149054906101000a900460ff1660ff168260ff1611158015611835575060018260ff1610155b6118a7576040517f08c379a00000000000000000000000000000000000000000000000000000000081526004018080602001828103825260148152602001807f496e636f7272656374206d656d6265727368697000000000000000000000000081525060200191505060405180910390fd5b600260008360ff1660ff168152602001908152602001600020546118cb3284610e36565b601760009054906101000a900473ffffffffffffffffffffffffffffffffffffffff1673ffffffffffffffffffffffffffffffffffffffff166370a08231336040518263ffffffff167c0100000000000000000000000000000000000000000000000000000000028152600401808273ffffffffffffffffffffffffffffffffffffffff16815260200191505060206040518083038186803b15801561197057600080fd5b505afa158015611984573d6000803e3d6000fd5b505050506040513d602081101561199a57600080fd5b8101908080519060200190929190505050011015611a20576040517f08c379a000000000000000000000000000000000000000000000000000000000815260040180806020018281038252601b8152602001807f496e636f7272656374206d656d6265727368697020616d6f756e74000000000081525060200191505060405180910390fd5b600a60003273ffffffffffffffffffffffffffffffffffffffff1673ffffffffffffffffffffffffffffffffffffffff16815260200190815260200160002060020160009054906101000a900473ffffffffffffffffffffffffffffffffffffffff1673ffffffffffffffffffffffffffffffffffffffff1663ec115240601460008560ff1660ff16815260200190815260200160002054846040518363ffffffff167c0100000000000000000000000000000000000000000000000000000000028152600401808260ff1681526020019150506000604051808303818588803b158015611b0d57600080fd5b505af1158015611b21573d6000803e3d6000fd5b5050505050600a60003273ffffffffffffffffffffffffffffffffffffffff1673ffffffffffffffffffffffffffffffffffffffff16815260200190815260200160002060020160009054906101000a900473ffffffffffffffffffffffffffffffffffffffff1673ffffffffffffffffffffffffffffffffffffffff16630bb32b6383600260008660ff1660ff168152602001908152602001600020546040518363ffffffff167c0100000000000000000000000000000000000000000000000000000000028152600401808360ff16815260200182815260200192505050600060405180830381600087803b158015611c1b57600080fd5b505af1158015611c2f573d6000803e3d6000fd5b50505050600190506001600081905550919050565b60026020528060005260406000206000915090505481565b600960149054906101000a900460ff1681565b6000600960009054906101000a900473ffffffffffffffffffffffffffffffffffffffff1673ffffffffffffffffffffffffffffffffffffffff163373ffffffffffffffffffffffffffffffffffffffff1614611d17576040517f08c379a0000000000000000000000000000000000000000000000000000000008152600401808060200182810382526029815260200180615edb6029913960400191505060405180910390fd5b611d6732868686868080601f016020809104026020016040519081016040528093929190818152602001838380828437600081840152601f19601f82011690508083019250505050505050613505565b60019050949350505050565b611d7c82610bef565b611dd1576040517f08c379a0000000000000000000000000000000000000000000000000000000008152600401808060200182810382526023815260200180615e956023913960400191505060405180910390fd5b601260009054906101000a900473ffffffffffffffffffffffffffffffffffffffff1673ffffffffffffffffffffffffffffffffffffffff163373ffffffffffffffffffffffffffffffffffffffff1614611f9557601460008260ff1660ff16815260200190815260200160002054601760009054906101000a900473ffffffffffffffffffffffffffffffffffffffff1673ffffffffffffffffffffffffffffffffffffffff166370a08231336040518263ffffffff167c0100000000000000000000000000000000000000000000000000000000028152600401808273ffffffffffffffffffffffffffffffffffffffff16815260200191505060206040518083038186803b158015611ee557600080fd5b505afa158015611ef9573d6000803e3d6000fd5b505050506040513d6020811015611f0f57600080fd5b81019080805190602001909291905050501015611f94576040517f08c379a000000000000000000000000000000000000000000000000000000000815260040180806020018281038252600d8152602001807f496e76616c69642070726963650000000000000000000000000000000000000081525060200191505060405180910390fd5b5b60028160ff1610158015611fbe5750600960149054906101000a900460ff1660ff168160ff1611155b612030576040517f08c379a000000000000000000000000000000000000000000000000000000000815260040180806020018281038252600c8152602001807f496e76616c696420736c6f74000000000000000000000000000000000000000081525060200191505060405180910390fd5b600a60008373ffffffffffffffffffffffffffffffffffffffff1673ffffffffffffffffffffffffffffffffffffffff16815260200190815260200160002060040160008260ff1660ff16815260200190815260200160002060009054906101000a900460ff161561210a576040517f08c379a00000000000000000000000000000000000000000000000000000000081526004018080602001828103825260168152602001807f536c6f7420616c7265616479206163746976617465640000000000000000000081525060200191505060405180910390fd5b60006121168383611083565b9050600a60008473ffffffffffffffffffffffffffffffffffffffff1673ffffffffffffffffffffffffffffffffffffffff16815260200190815260200160002060010160009054906101000a900473ffffffffffffffffffffffffffffffffffffffff1673ffffffffffffffffffffffffffffffffffffffff168173ffffffffffffffffffffffffffffffffffffffff161461227c577f8a4b1d4182ff6820d50bcd3ac812950a075f8c56923648cee78898c7de18b103600a60008373ffffffffffffffffffffffffffffffffffffffff1673ffffffffffffffffffffffffffffffffffffffff16815260200190815260200160002060000154600a60008673ffffffffffffffffffffffffffffffffffffffff1673ffffffffffffffffffffffffffffffffffffffff1681526020019081526020016000206000015484604051808481526020018381526020018260ff168152602001935050505060405180910390a15b6001600a60008573ffffffffffffffffffffffffffffffffffffffff1673ffffffffffffffffffffffffffffffffffffffff16815260200190815260200160002060040160008460ff1660ff16815260200190815260200160002060006101000a81548160ff0219169083151502179055506001600a60008573ffffffffffffffffffffffffffffffffffffffff1673ffffffffffffffffffffffffffffffffffffffff16815260200190815260200160002060050160008460ff1660ff16815260200190815260200160002060020160006101000a81548163ffffffff021916908363ffffffff160217905550612375838284613d9f565b7f323e8c86b83c1bfd2fd597564f8953de337b430df3813646a8bdf55b1bf6160e600a60008573ffffffffffffffffffffffffffffffffffffffff1673ffffffffffffffffffffffffffffffffffffffff16815260200190815260200160002060000154600a60008473ffffffffffffffffffffffffffffffffffffffff1673ffffffffffffffffffffffffffffffffffffffff1681526020019081526020016000206000015484604051808481526020018381526020018260ff168152602001935050505060405180910390a1601460008360ff1660ff16815260200190815260200160002054601160008282540192505081905550505050565b601260009054906101000a900473ffffffffffffffffffffffffffffffffffffffff1673ffffffffffffffffffffffffffffffffffffffff163373ffffffffffffffffffffffffffffffffffffffff161461263557600260008260ff1660ff16815260200190815260200160002054601760009054906101000a900473ffffffffffffffffffffffffffffffffffffffff1673ffffffffffffffffffffffffffffffffffffffff166370a08231336040518263ffffffff167c0100000000000000000000000000000000000000000000000000000000028152600401808273ffffffffffffffffffffffffffffffffffffffff16815260200191505060206040518083038186803b15801561258557600080fd5b505afa158015612599573d6000803e3d6000fd5b505050506040513d60208110156125af57600080fd5b81019080805190602001909291905050501015612634576040517f08c379a00000000000000000000000000000000000000000000000000000000081526004018080602001828103825260198152602001807f496e76616c6964206d656d6265727368697020616d6f756e740000000000000081525060200191505060405180910390fd5b5b61263e82610bef565b6126b0576040517f08c379a000000000000000000000000000000000000000000000000000000000815260040180806020018281038252600f8152602001807f55736572206e6f7420657869737473000000000000000000000000000000000081525060200191505060405180910390fd5b60018160ff16101580156126d95750600960149054906101000a900460ff1660ff168160ff1611155b61274b576040517f08c379a000000000000000000000000000000000000000000000000000000000815260040180806020018281038252600c8152602001807f496e76616c696420736c6f74000000000000000000000000000000000000000081525060200191505060405180910390fd5b600a60008373ffffffffffffffffffffffffffffffffffffffff1673ffffffffffffffffffffffffffffffffffffffff16815260200190815260200160002060040160008260ff1660ff16815260200190815260200160002060009054906101000a900460ff16612824576040517f08c379a00000000000000000000000000000000000000000000000000000000081526004018080602001828103825260128152602001807f536c6f74206e6f7420616374697661746564000000000000000000000000000081525060200191505060405180910390fd5b6000600a60008473ffffffffffffffffffffffffffffffffffffffff1673ffffffffffffffffffffffffffffffffffffffff16815260200190815260200160002060060160008360ff1660ff1681526020019081526020016000205414612959576203f480600a60008473ffffffffffffffffffffffffffffffffffffffff1673ffffffffffffffffffffffffffffffffffffffff16815260200190815260200160002060060160008360ff1660ff16815260200190815260200160002054034211612958576040517f08c379a00000000000000000000000000000000000000000000000000000000081526004018080602001828103825260148152602001807f4d656d626572736869702069732061637469766500000000000000000000000081525060200191505060405180910390fd5b5b600a60008373ffffffffffffffffffffffffffffffffffffffff1673ffffffffffffffffffffffffffffffffffffffff16815260200190815260200160002060060160008260ff1660ff16815260200190815260200160002054421115612a195742600a60008473ffffffffffffffffffffffffffffffffffffffff1673ffffffffffffffffffffffffffffffffffffffff16815260200190815260200160002060060160008360ff1660ff168152602001908152602001600020819055505b62278d00600a60008473ffffffffffffffffffffffffffffffffffffffff1673ffffffffffffffffffffffffffffffffffffffff16815260200190815260200160002060060160008360ff1660ff1681526020019081526020016000206000828254019250508190555062278d004201600a60008473ffffffffffffffffffffffffffffffffffffffff1673ffffffffffffffffffffffffffffffffffffffff16815260200190815260200160002060060160008360ff1660ff168152602001908152602001600020541015612aeb57fe5b600a60008373ffffffffffffffffffffffffffffffffffffffff1673ffffffffffffffffffffffffffffffffffffffff16815260200190815260200160002060070160008260ff1660ff16815260200190815260200160002060009054906101000a900460ff16612bc9576001600a60008473ffffffffffffffffffffffffffffffffffffffff1673ffffffffffffffffffffffffffffffffffffffff16815260200190815260200160002060070160008360ff1660ff16815260200190815260200160002060006101000a81548160ff0219169083151502179055505b6000600f60008473ffffffffffffffffffffffffffffffffffffffff1673ffffffffffffffffffffffffffffffffffffffff168152602001908152602001600020819055506001600a60008473ffffffffffffffffffffffffffffffffffffffff1673ffffffffffffffffffffffffffffffffffffffff16815260200190815260200160002060030160008360ff1660ff16815260200190815260200160002060008282829054906101000a900463ffffffff160192506101000a81548163ffffffff021916908363ffffffff1602179055506000600a60008473ffffffffffffffffffffffffffffffffffffffff1673ffffffffffffffffffffffffffffffffffffffff16815260200190815260200160002060030160008360ff1660ff16815260200190815260200160002060009054906101000a900463ffffffff1690506000600a60008573ffffffffffffffffffffffffffffffffffffffff1673ffffffffffffffffffffffffffffffffffffffff16815260200190815260200160002060050160008460ff1660ff16815260200190815260200160002060010160009054906101000a900473ffffffffffffffffffffffffffffffffffffffff1690506000600a60008673ffffffffffffffffffffffffffffffffffffffff1673ffffffffffffffffffffffffffffffffffffffff16815260200190815260200160002060050160008560ff1660ff16815260200190815260200160002060000160009054906101000a900473ffffffffffffffffffffffffffffffffffffffff1690506000600560008660ff1660ff1681526020019081526020016000205490506000600190505b600a8160ff1611613415576001600a60008673ffffffffffffffffffffffffffffffffffffffff1673ffffffffffffffffffffffffffffffffffffffff16815260200190815260200160002060050160008860ff1660ff16815260200190815260200160002060030160008763ffffffff1663ffffffff1681526020019081526020016000206000600a60018a0302840160ff1660ff16815260200190815260200160002060008282829054906101000a900463ffffffff160192506101000a81548163ffffffff021916908363ffffffff160217905550601260009054906101000a900473ffffffffffffffffffffffffffffffffffffffff1673ffffffffffffffffffffffffffffffffffffffff168473ffffffffffffffffffffffffffffffffffffffff161415612fa957612fa4601260009054906101000a900473ffffffffffffffffffffffffffffffffffffffff16600360008960ff1660ff168152602001908152602001600020546151e9565b613389565b42600a60008673ffffffffffffffffffffffffffffffffffffffff1673ffffffffffffffffffffffffffffffffffffffff16815260200190815260200160002060060160008860ff1660ff168152602001908152602001600020541061336957600754600260008860ff1660ff16815260200190815260200160002054016130318588610e36565b1061325d57600360008760ff1660ff16815260200190815260200160002054600e60008673ffffffffffffffffffffffffffffffffffffffff1673ffffffffffffffffffffffffffffffffffffffff16815260200190815260200160002060006002815260200190815260200160002060008860ff168152602001908152602001600020600082825401925050819055506000600f60008973ffffffffffffffffffffffffffffffffffffffff1673ffffffffffffffffffffffffffffffffffffffff168152602001908152602001600020541415613235576001600f60008973ffffffffffffffffffffffffffffffffffffffff1673ffffffffffffffffffffffffffffffffffffffff168152602001908152602001600020819055507f7d2d5fc3834c9fef7de5a50cf28be66e2b1373118b0742529ce1ca7f33f175a6600a60008973ffffffffffffffffffffffffffffffffffffffff1673ffffffffffffffffffffffffffffffffffffffff1681526020019081526020016000206000015487600a60008b73ffffffffffffffffffffffffffffffffffffffff1673ffffffffffffffffffffffffffffffffffffffff16815260200190815260200160002060060160008a60ff1660ff16815260200190815260200160002054604051808481526020018360ff168152602001828152602001935050505060405180910390a15b61325884600360008960ff1660ff168152602001908152602001600020546151e9565b613364565b600a60008573ffffffffffffffffffffffffffffffffffffffff1673ffffffffffffffffffffffffffffffffffffffff16815260200190815260200160002060020160009054906101000a900473ffffffffffffffffffffffffffffffffffffffff1673ffffffffffffffffffffffffffffffffffffffff1663ec115240600360008960ff1660ff16815260200190815260200160002054886040518363ffffffff167c0100000000000000000000000000000000000000000000000000000000028152600401808260ff1681526020019150506000604051808303818588803b15801561334a57600080fd5b505af115801561335e573d6000803e3d6000fd5b50505050505b613388565b600360008760ff1660ff16815260200190815260200160002054820191505b5b600a60008573ffffffffffffffffffffffffffffffffffffffff1673ffffffffffffffffffffffffffffffffffffffff16815260200190815260200160002060050160008760ff1660ff16815260200190815260200160002060010160009054906101000a900473ffffffffffffffffffffffffffffffffffffffff1693508080600101915050612e31565b50613442600860009054906101000a900473ffffffffffffffffffffffffffffffffffffffff16826151e9565b7f43bc1d3b5c6ae4eb3c25a640a2fd0a58de347002e9bc25fd76b5d0dd97cff169600a60008873ffffffffffffffffffffffffffffffffffffffff1673ffffffffffffffffffffffffffffffffffffffff168152602001908152602001600020600001548587604051808481526020018363ffffffff1681526020018260ff168152602001935050505060405180910390a1601460008660ff1660ff16815260200190815260200160002054601160008282540192505081905550505050505050565b601260009054906101000a900473ffffffffffffffffffffffffffffffffffffffff1673ffffffffffffffffffffffffffffffffffffffff163373ffffffffffffffffffffffffffffffffffffffff16146136c75760146000600160ff16815260200190815260200160002054601760009054906101000a900473ffffffffffffffffffffffffffffffffffffffff1673ffffffffffffffffffffffffffffffffffffffff166370a08231336040518263ffffffff167c0100000000000000000000000000000000000000000000000000000000028152600401808273ffffffffffffffffffffffffffffffffffffffff16815260200191505060206040518083038186803b15801561361757600080fd5b505afa15801561362b573d6000803e3d6000fd5b505050506040513d602081101561364157600080fd5b810190808051906020019092919050505010156136c6576040517f08c379a000000000000000000000000000000000000000000000000000000000815260040180806020018281038252601b8152602001807f496e76616c696420726567697374726174696f6e20616d6f756e74000000000081525060200191505060405180910390fd5b5b6136d084610bef565b15613743576040517f08c379a00000000000000000000000000000000000000000000000000000000081526004018080602001828103825260138152602001807f5573657220616c7265616479206578697374730000000000000000000000000081525060200191505060405180910390fd5b61374c83610bef565b6137be576040517f08c379a00000000000000000000000000000000000000000000000000000000081526004018080602001828103825260128152602001807f53706f6e736f72206e6f7420657869737473000000000000000000000000000081525060200191505060405180910390fd5b601060008154809291906001019190505550600084306040516137e09061560a565b808373ffffffffffffffffffffffffffffffffffffffff1681526020018273ffffffffffffffffffffffffffffffffffffffff16815260200192505050604051809103906000f080158015613839573d6000803e3d6000fd5b50905060405180606001604052808481526020018573ffffffffffffffffffffffffffffffffffffffff1681526020018273ffffffffffffffffffffffffffffffffffffffff16815250600a60008773ffffffffffffffffffffffffffffffffffffffff1673ffffffffffffffffffffffffffffffffffffffff1681526020019081526020016000206000820151816000015560208201518160010160006101000a81548173ffffffffffffffffffffffffffffffffffffffff021916908373ffffffffffffffffffffffffffffffffffffffff16021790555060408201518160020160006101000a81548173ffffffffffffffffffffffffffffffffffffffff021916908373ffffffffffffffffffffffffffffffffffffffff16021790555090505084600b600085815260200190815260200160002060006101000a81548173ffffffffffffffffffffffffffffffffffffffff021916908373ffffffffffffffffffffffffffffffffffffffff16021790555084600c836040518082805190602001908083835b602083106139e657805182526020820191506020810190506020830392506139c3565b6001836020036101000a038019825116818451168082178552505050505050905001915050908152602001604051809103902060006101000a81548173ffffffffffffffffffffffffffffffffffffffff021916908373ffffffffffffffffffffffffffffffffffffffff16021790555081600d60008773ffffffffffffffffffffffffffffffffffffffff1673ffffffffffffffffffffffffffffffffffffffff1681526020019081526020016000209080519060200190613aaa929190615617565b5083600a60008773ffffffffffffffffffffffffffffffffffffffff1673ffffffffffffffffffffffffffffffffffffffff16815260200190815260200160002060010160006101000a81548173ffffffffffffffffffffffffffffffffffffffff021916908373ffffffffffffffffffffffffffffffffffffffff1602179055506001600a60008773ffffffffffffffffffffffffffffffffffffffff1673ffffffffffffffffffffffffffffffffffffffff1681526020019081526020016000206004016000600160ff16815260200190815260200160002060006101000a81548160ff0219169083151502179055506001600a60008773ffffffffffffffffffffffffffffffffffffffff1673ffffffffffffffffffffffffffffffffffffffff1681526020019081526020016000206005016000600160ff16815260200190815260200160002060020160006101000a81548163ffffffff021916908363ffffffff160217905550613c2285856001613d9f565b7f0b177cf43c6a4968440afe7d8919f5d0bb61a36fd7e33c8f9297ce471f45021c600a60008773ffffffffffffffffffffffffffffffffffffffff1673ffffffffffffffffffffffffffffffffffffffff16815260200190815260200160002060000154600a60008773ffffffffffffffffffffffffffffffffffffffff1673ffffffffffffffffffffffffffffffffffffffff16815260200190815260200160002060000154604051808381526020018281526020019250505060405180910390a18473ffffffffffffffffffffffffffffffffffffffff167fddfebd7694abf5cf09a31580d680d5720ce69110a4e7966afc756d574b4ce481836040518080602001828103825283818151815260200191508051906020019080838360005b83811015613d5e578082015181840152602081019050613d43565b50505050905090810190601f168015613d8b5780820380516001836020036101000a031916815260200191505b509250505060405180910390a25050505050565b81600a60008573ffffffffffffffffffffffffffffffffffffffff1673ffffffffffffffffffffffffffffffffffffffff16815260200190815260200160002060050160008360ff1660ff16815260200190815260200160002060000160006101000a81548173ffffffffffffffffffffffffffffffffffffffff021916908373ffffffffffffffffffffffffffffffffffffffff1602179055506000613e4683836153a5565b905060038163ffffffff1611156143ee57600160038263ffffffff1681613e6957fe5b0663ffffffff16141561403e57600a60008473ffffffffffffffffffffffffffffffffffffffff1673ffffffffffffffffffffffffffffffffffffffff16815260200190815260200160002060050160008360ff1660ff168152602001908152602001600020600401600060036001840363ffffffff1681613ee757fe5b0463ffffffff1663ffffffff16815260200190815260200160002060009054906101000a900473ffffffffffffffffffffffffffffffffffffffff16600a60008673ffffffffffffffffffffffffffffffffffffffff1673ffffffffffffffffffffffffffffffffffffffff16815260200190815260200160002060050160008460ff1660ff16815260200190815260200160002060010160006101000a81548173ffffffffffffffffffffffffffffffffffffffff021916908373ffffffffffffffffffffffffffffffffffffffff1602179055506001600a60008673ffffffffffffffffffffffffffffffffffffffff1673ffffffffffffffffffffffffffffffffffffffff16815260200190815260200160002060050160008460ff1660ff16815260200190815260200160002060010160146101000a81548163ffffffff021916908363ffffffff1602179055506143e9565b600260038263ffffffff168161405057fe5b0663ffffffff16141561422557600a60008473ffffffffffffffffffffffffffffffffffffffff1673ffffffffffffffffffffffffffffffffffffffff16815260200190815260200160002060050160008360ff1660ff168152602001908152602001600020600401600060036002840363ffffffff16816140ce57fe5b0463ffffffff1663ffffffff16815260200190815260200160002060009054906101000a900473ffffffffffffffffffffffffffffffffffffffff16600a60008673ffffffffffffffffffffffffffffffffffffffff1673ffffffffffffffffffffffffffffffffffffffff16815260200190815260200160002060050160008460ff1660ff16815260200190815260200160002060010160006101000a81548173ffffffffffffffffffffffffffffffffffffffff021916908373ffffffffffffffffffffffffffffffffffffffff1602179055506002600a60008673ffffffffffffffffffffffffffffffffffffffff1673ffffffffffffffffffffffffffffffffffffffff16815260200190815260200160002060050160008460ff1660ff16815260200190815260200160002060010160146101000a81548163ffffffff021916908363ffffffff1602179055506143e8565b600a60008473ffffffffffffffffffffffffffffffffffffffff1673ffffffffffffffffffffffffffffffffffffffff16815260200190815260200160002060050160008360ff1660ff1681526020019081526020016000206004016000600380840363ffffffff168161429557fe5b0463ffffffff1663ffffffff16815260200190815260200160002060009054906101000a900473ffffffffffffffffffffffffffffffffffffffff16600a60008673ffffffffffffffffffffffffffffffffffffffff1673ffffffffffffffffffffffffffffffffffffffff16815260200190815260200160002060050160008460ff1660ff16815260200190815260200160002060010160006101000a81548173ffffffffffffffffffffffffffffffffffffffff021916908373ffffffffffffffffffffffffffffffffffffffff1602179055506003600a60008673ffffffffffffffffffffffffffffffffffffffff1673ffffffffffffffffffffffffffffffffffffffff16815260200190815260200160002060050160008460ff1660ff16815260200190815260200160002060010160146101000a81548163ffffffff021916908363ffffffff1602179055505b5b6145b9565b60008163ffffffff1614156144a25761449c84600a60008673ffffffffffffffffffffffffffffffffffffffff1673ffffffffffffffffffffffffffffffffffffffff16815260200190815260200160002060050160008560ff1660ff1681526020019081526020016000206004016000600163ffffffff16815260200190815260200160002060009054906101000a900473ffffffffffffffffffffffffffffffffffffffff1684613d9f565b506151e4565b82600a60008673ffffffffffffffffffffffffffffffffffffffff1673ffffffffffffffffffffffffffffffffffffffff16815260200190815260200160002060050160008460ff1660ff16815260200190815260200160002060010160006101000a81548173ffffffffffffffffffffffffffffffffffffffff021916908373ffffffffffffffffffffffffffffffffffffffff16021790555080600a60008673ffffffffffffffffffffffffffffffffffffffff1673ffffffffffffffffffffffffffffffffffffffff16815260200190815260200160002060050160008460ff1660ff16815260200190815260200160002060010160146101000a81548163ffffffff021916908363ffffffff1602179055505b6000600a60008673ffffffffffffffffffffffffffffffffffffffff1673ffffffffffffffffffffffffffffffffffffffff16815260200190815260200160002060050160008460ff1660ff16815260200190815260200160002060010160009054906101000a900473ffffffffffffffffffffffffffffffffffffffff169050600a60008673ffffffffffffffffffffffffffffffffffffffff1673ffffffffffffffffffffffffffffffffffffffff16815260200190815260200160002060050160008460ff1660ff16815260200190815260200160002060010160149054906101000a900463ffffffff169150600080601260009054906101000a900473ffffffffffffffffffffffffffffffffffffffff1673ffffffffffffffffffffffffffffffffffffffff168673ffffffffffffffffffffffffffffffffffffffff161461495357600260008660ff1660ff168152602001908152602001600020546147258787610e36565b1015801561478c575042600a60008873ffffffffffffffffffffffffffffffffffffffff1673ffffffffffffffffffffffffffffffffffffffff16815260200190815260200160002060060160008760ff1660ff1681526020019081526020016000205410155b1561483b57606460148060008860ff1660ff1681526020019081526020016000205402816147b657fe5b04915081600e60008873ffffffffffffffffffffffffffffffffffffffff1673ffffffffffffffffffffffffffffffffffffffff16815260200190815260200160002060006001815260200190815260200160002060008760ff1681526020019081526020016000206000828254019250508190555061483686836151e9565b61494e565b600a60008773ffffffffffffffffffffffffffffffffffffffff1673ffffffffffffffffffffffffffffffffffffffff16815260200190815260200160002060020160009054906101000a900473ffffffffffffffffffffffffffffffffffffffff1673ffffffffffffffffffffffffffffffffffffffff1663ec115240606460148060008a60ff1660ff1681526020019081526020016000205402816148de57fe5b04876040518363ffffffff167c0100000000000000000000000000000000000000000000000000000000028152600401808260ff1681526020019150506000604051808303818588803b15801561493457600080fd5b505af1158015614948573d6000803e3d6000fd5b50505050505b6149a5565b6149a4601260009054906101000a900473ffffffffffffffffffffffffffffffffffffffff16606460148060008a60ff1660ff16815260200190815260200160002054028161499e57fe5b046151e9565b5b6000600190505b600a8160ff16116151de57846149c960036001840360ff16615597565b028201915087600a60008673ffffffffffffffffffffffffffffffffffffffff1673ffffffffffffffffffffffffffffffffffffffff16815260200190815260200160002060050160008860ff1660ff16815260200190815260200160002060040160008463ffffffff1663ffffffff16815260200190815260200160002060006101000a81548173ffffffffffffffffffffffffffffffffffffffff021916908373ffffffffffffffffffffffffffffffffffffffff1602179055506001600a60008673ffffffffffffffffffffffffffffffffffffffff1673ffffffffffffffffffffffffffffffffffffffff16815260200190815260200160002060050160008860ff1660ff16815260200190815260200160002060010160188282829054906101000a900463ffffffff160192506101000a81548163ffffffff021916908363ffffffff160217905550601260009054906101000a900473ffffffffffffffffffffffffffffffffffffffff1673ffffffffffffffffffffffffffffffffffffffff168473ffffffffffffffffffffffffffffffffffffffff161415614bf157614be7601260009054906101000a900473ffffffffffffffffffffffffffffffffffffffff166064601660008560ff1660ff16815260200190815260200160002060009054906101000a900460ff1660ff16601460008b60ff1660ff168152602001908152602001600020540281614be157fe5b046151e9565b50505050506151e4565b600754600260008860ff1660ff1681526020019081526020016000205401614c198588610e36565b10158015614c80575042600a60008673ffffffffffffffffffffffffffffffffffffffff1673ffffffffffffffffffffffffffffffffffffffff16815260200190815260200160002060060160008860ff1660ff1681526020019081526020016000205410155b15614ecb576064601560008360ff1660ff16815260200190815260200160002060009054906101000a900460ff1660ff16601460008960ff1660ff168152602001908152602001600020540281614cd357fe5b04925082600e60008673ffffffffffffffffffffffffffffffffffffffff1673ffffffffffffffffffffffffffffffffffffffff16815260200190815260200160002060006001815260200190815260200160002060008860ff168152602001908152602001600020600082825401925050819055506000600f60008a73ffffffffffffffffffffffffffffffffffffffff1673ffffffffffffffffffffffffffffffffffffffff168152602001908152602001600020541415614ebc576001600f60008a73ffffffffffffffffffffffffffffffffffffffff1673ffffffffffffffffffffffffffffffffffffffff168152602001908152602001600020819055507f7d2d5fc3834c9fef7de5a50cf28be66e2b1373118b0742529ce1ca7f33f175a6600a60008a73ffffffffffffffffffffffffffffffffffffffff1673ffffffffffffffffffffffffffffffffffffffff1681526020019081526020016000206000015487600a60008c73ffffffffffffffffffffffffffffffffffffffff1673ffffffffffffffffffffffffffffffffffffffff16815260200190815260200160002060060160008a60ff1660ff16815260200190815260200160002054604051808481526020018360ff168152602001828152602001935050505060405180910390a15b614ec684846151e9565b615007565b600a60008573ffffffffffffffffffffffffffffffffffffffff1673ffffffffffffffffffffffffffffffffffffffff16815260200190815260200160002060020160009054906101000a900473ffffffffffffffffffffffffffffffffffffffff1673ffffffffffffffffffffffffffffffffffffffff1663ec1152406064601560008560ff1660ff16815260200190815260200160002060009054906101000a900460ff1660ff16601460008b60ff1660ff168152602001908152602001600020540281614f9757fe5b04886040518363ffffffff167c0100000000000000000000000000000000000000000000000000000000028152600401808260ff1681526020019150506000604051808303818588803b158015614fed57600080fd5b505af1158015615001573d6000803e3d6000fd5b50505050505b7f81b411af159c9b3a6b9a321b8cf126de64af85369ded50eeec098acad883c2b7600a60008a73ffffffffffffffffffffffffffffffffffffffff1673ffffffffffffffffffffffffffffffffffffffff16815260200190815260200160002060000154600a60008773ffffffffffffffffffffffffffffffffffffffff1673ffffffffffffffffffffffffffffffffffffffff168152602001908152602001600020600001548885604051808581526020018481526020018360ff1681526020018263ffffffff16815260200194505050505060405180910390a1600a60008573ffffffffffffffffffffffffffffffffffffffff1673ffffffffffffffffffffffffffffffffffffffff16815260200190815260200160002060050160008760ff1660ff16815260200190815260200160002060010160149054906101000a900463ffffffff169450600a60008573ffffffffffffffffffffffffffffffffffffffff1673ffffffffffffffffffffffffffffffffffffffff16815260200190815260200160002060050160008760ff1660ff16815260200190815260200160002060010160009054906101000a900473ffffffffffffffffffffffffffffffffffffffff16935080806001019150506149ac565b50505050505b505050565b601260009054906101000a900473ffffffffffffffffffffffffffffffffffffffff1673ffffffffffffffffffffffffffffffffffffffff163373ffffffffffffffffffffffffffffffffffffffff16146153a1576000601760009054906101000a900473ffffffffffffffffffffffffffffffffffffffff1673ffffffffffffffffffffffffffffffffffffffff1663a9059cbb84846040518363ffffffff167c0100000000000000000000000000000000000000000000000000000000028152600401808373ffffffffffffffffffffffffffffffffffffffff16815260200182815260200192505050602060405180830381600087803b1580156152ef57600080fd5b505af1158015615303573d6000803e3d6000fd5b505050506040513d602081101561531957600080fd5b810190808051906020019092919050505090508061539f576040517f08c379a00000000000000000000000000000000000000000000000000000000081526004018080602001828103825260118152602001807f496e73756666696369656e74204761732e00000000000000000000000000000081525060200191505060405180910390fd5b505b5050565b600080600a60008573ffffffffffffffffffffffffffffffffffffffff1673ffffffffffffffffffffffffffffffffffffffff16815260200190815260200160002060050160008460ff1660ff16815260200190815260200160002060020160009054906101000a900463ffffffff1690505b620159fd8163ffffffff16101561558b57600073ffffffffffffffffffffffffffffffffffffffff16600a60008673ffffffffffffffffffffffffffffffffffffffff1673ffffffffffffffffffffffffffffffffffffffff16815260200190815260200160002060050160008560ff1660ff16815260200190815260200160002060040160008363ffffffff1663ffffffff16815260200190815260200160002060009054906101000a900473ffffffffffffffffffffffffffffffffffffffff1673ffffffffffffffffffffffffffffffffffffffff16141561557e5760018101600a60008673ffffffffffffffffffffffffffffffffffffffff1673ffffffffffffffffffffffffffffffffffffffff16815260200190815260200160002060050160008560ff1660ff16815260200190815260200160002060020160006101000a81548163ffffffff021916908363ffffffff16021790555080915050615591565b8080600101915050615418565b50600090505b92915050565b6000808263ffffffff1614156155b05760019050615604565b60018263ffffffff1614156155c757829050615604565b60008363ffffffff161480156155e4575060008263ffffffff1614155b156155f25760009050615604565b8163ffffffff168363ffffffff160a90505b92915050565b6107e0806156b583390190565b828054600181600116156101000203166002900490600052602060002090601f016020900481019282601f1061565857805160ff1916838001178555615686565b82800160010185558215615686579182015b8281111561568557825182559160200191906001019061566a565b5b5090506156939190615697565b5090565b5b808211156156b0576000816000905550600101615698565b509056fe608060405234801561001057600080fd5b506040516107e03803806107e08339818101604052604081101561003357600080fd5b810190808051906020019092919080519060200190929190505050816000806101000a81548173ffffffffffffffffffffffffffffffffffffffff021916908373ffffffffffffffffffffffffffffffffffffffff16021790555080600160006101000a81548173ffffffffffffffffffffffffffffffffffffffff021916908373ffffffffffffffffffffffffffffffffffffffff1602179055505050610700806100e06000396000f3fe608060405260043610610060576000357c0100000000000000000000000000000000000000000000000000000000900480630bb32b6314610066578063c2d90e95146100a1578063ce751f77146100f3578063ec1152401461013b57610061565b5b600080fd5b61009f6004803603604081101561007c57600080fd5b81019080803560ff1690602001909291908035906020019092919050505061016c565b005b3480156100ad57600080fd5b506100dd600480360360208110156100c457600080fd5b81019080803560ff169060200190929190505050610410565b6040518082815260200191505060405180910390f35b3480156100ff57600080fd5b506101396004803603604081101561011657600080fd5b8101908080359060200190929190803560ff169060200190929190505050610433565b005b61016a6004803603602081101561015157600080fd5b81019080803560ff1690602001909291905050506106a0565b005b600160009054906101000a900473ffffffffffffffffffffffffffffffffffffffff1673ffffffffffffffffffffffffffffffffffffffff163373ffffffffffffffffffffffffffffffffffffffff161480610213575060008054906101000a900473ffffffffffffffffffffffffffffffffffffffff1673ffffffffffffffffffffffffffffffffffffffff163273ffffffffffffffffffffffffffffffffffffffff16145b610285576040517f08c379a00000000000000000000000000000000000000000000000000000000081526004018080602001828103825260018152602001807f310000000000000000000000000000000000000000000000000000000000000081525060200191505060405180910390fd5b80600260008460ff1660ff168152602001908152602001600020541015610314576040517f08c379a00000000000000000000000000000000000000000000000000000000081526004018080602001828103825260018152602001807f320000000000000000000000000000000000000000000000000000000000000081525060200191505060405180910390fd5b80600260008460ff1660ff16815260200190815260200160002060008282540392505081905550600160009054906101000a900473ffffffffffffffffffffffffffffffffffffffff1673ffffffffffffffffffffffffffffffffffffffff1663cf5368ed82846040518363ffffffff167c0100000000000000000000000000000000000000000000000000000000028152600401808260ff1681526020019150506020604051808303818588803b1580156103cf57600080fd5b505af11580156103e3573d6000803e3d6000fd5b50505050506040513d60208110156103fa57600080fd5b8101908080519060200190929190505050505050565b6000600260008360ff1660ff168152602001908152602001600020549050919050565b600160009054906101000a900473ffffffffffffffffffffffffffffffffffffffff1673ffffffffffffffffffffffffffffffffffffffff1663f2eed3ac6040518163ffffffff167c010000000000000000000000000000000000000000000000000000000002815260040160206040518083038186803b1580156104b757600080fd5b505afa1580156104cb573d6000803e3d6000fd5b505050506040513d60208110156104e157600080fd5b810190808051906020019092919050505073ffffffffffffffffffffffffffffffffffffffff163373ffffffffffffffffffffffffffffffffffffffff1614610592576040517f08c379a00000000000000000000000000000000000000000000000000000000081526004018080602001828103825260018152602001807f330000000000000000000000000000000000000000000000000000000000000081525060200191505060405180910390fd5b600082905080600260008460ff1660ff1681526020019081526020016000206000828254039250508190555060003273ffffffffffffffffffffffffffffffffffffffff168260405180600001905060006040518083038185875af1925050503d806000811461061e576040519150601f19603f3d011682016040523d82523d6000602084013e610623565b606091505b505090508061069a576040517f08c379a00000000000000000000000000000000000000000000000000000000081526004018080602001828103825260018152602001807f340000000000000000000000000000000000000000000000000000000000000081525060200191505060405180910390fd5b50505050565b34600260008360ff1660ff168152602001908152602001600020600082825401925050819055505056fea26469706673582212200432fe9c69191e1b2669cfc974a8c7e6fc91d255c82414bc5957bb8c672ba22c64736f6c634300060c003355736572206973206e6f74206578697374732e2052656769737465722066697273742e596f75277265206e6f74207468652062757a7a206f662074686520636f6e74726163744f6e6c792063616e20726567697374657220776974682042757a7a6572616e6720436f6e74726163744f6e6c792063616e20616374697661746520616e20726567697374657220757365724f6e6c792063616e20616374697661746520776974682042757a7a6572616e6720436f6e747261637454686520636f6e747261637420697320756e646572206d61696e74656e616e63652ea2646970667358221220e4a3e1104144a6e578c0947854227c27f45bd9ab397258d81101e57c433b8d6d64736f6c634300060c0033",
  "immutableReferences": {},
  "source": "\r\nimport \"./B4Vault.sol\";\r\n\r\npragma solidity 0.6.12;\r\n\r\ninterface B4VaultUser {\r\n    function getMembershipBalance(uint8 slot) external view returns (uint);\r\n    function storeVaultTRX(uint8 slot) external payable;\r\n    function activeMembership(uint8 membership, uint membershipPrice) external payable;\r\n}\r\n\r\ncontract BuzzerangB4 {\r\n    //Modifiers\r\n    modifier onlyOwner() virtual{\r\n        require(msg.sender == buzz, \"You're not the buzz of the contract\");\r\n        _;\r\n    }\r\n    //Reentrancy\r\n    uint256 internal constant _NOT_ENTERED = 1;\r\n    uint256 internal constant _ENTERED = 2;\r\n    uint256 internal _status;\r\n\r\n    modifier nonReEntrant() virtual{\r\n        require(_status != _ENTERED, \"ReentrancyGuard: reentrant call\");\r\n        _status = _ENTERED;\r\n        _;\r\n        _status = _NOT_ENTERED;\r\n    }\r\n    //Maintenance\r\n    uint256 internal state;\r\n    modifier maintenance() {\r\n        require(state == 0, \"The contract is under maintenance.\");\r\n        _;\r\n    }\r\n\r\n    //Store the membership prices\r\n    mapping(uint8 => uint) public membershipPrice;\r\n    //Payout for each person\r\n    mapping(uint8 => uint) public membershipPay;\r\n\r\n    mapping(uint8 => uint) internal bonusTRX;\r\n\r\n    mapping(uint8 => uint) internal vaultPay;\r\n    //Renewal address\r\n    address internal renewalAddress;\r\n    uint trxCost = 15000000000 wei;\r\n    address public vaultAddress;\r\n    //External contract addresses\r\n    address public buzzerangAddress;\r\n\r\n    //User data structure\r\n    struct User {\r\n        //User ID\r\n        uint id;\r\n        //Direct Partner or up line\r\n        address sponsor;\r\n        //Buzzerang vault storage contract\r\n        address buzzVault;\r\n        mapping(uint8 => uint32) period;\r\n        //Active programs\r\n        mapping(uint8 => bool) activeB4Slots;\r\n        //Programs storing\r\n        mapping(uint8 => B4) b4;\r\n        // Membership times\r\n        mapping(uint8 => uint256) membershipTime;\r\n        mapping(uint8 => bool) activeMembershipSlots;\r\n        \r\n    }\r\n    // Smart Plus program data\r\n    struct B4 {\r\n        address currentSponsor;\r\n        address currentParent;\r\n        uint32 currentId;\r\n        uint32 countReferrals;\r\n        uint32 countLevel;\r\n        uint32 memCount;\r\n        mapping(uint32 => mapping(uint8 => uint32)) membershipActive;\r\n        mapping(uint32 => address) referrals;\r\n    }\r\n    // Initial number of slots\r\n    uint8 public LAST_SLOT = 5;\r\n    // Store the users\r\n    mapping(address => User) public users;\r\n    // Store address to convert to id\r\n    mapping(uint => address) public idToAddress;\r\n    // Store the usernames of the users\r\n    mapping(string => address) private usernameToAddress;\r\n    // Store the username of the users\r\n    mapping(address => string) private addressToUsername;\r\n    // Store the balances of the users\r\n    mapping(address => mapping(uint => mapping(uint => uint))) internal balances;\r\n    mapping(address => uint) private renew;\r\n    // Last registered user\r\n    uint public lastUserId = 1;\r\n    // Global Income\r\n    uint internal globalIncome = 0;\r\n    // Owner (buzz) of the smart contract\r\n    address payable public buzz;\r\n    \r\n    uint private decimals = 1000000000000000000;\r\n\r\n    // Store the slot prices\r\n    mapping(uint8 => uint) public slotPrice;\r\n    // Store the slot prices\r\n    mapping(uint8 => uint8) public b4Percentage;\r\n    // Store the slot prices\r\n    mapping(uint8 => uint8) public b4buzzPercentage;\r\n    \r\n    BUSDInterface internal BUSD;\r\n\r\n    // Buzzerang events\r\n    event Registration(uint userId, uint sponsorId);\r\n    event Upgrade(uint userId, uint sponsorId, uint8 slot);\r\n    event Placement(uint userId, uint parentId, uint8 slot, uint position);\r\n    event Username(string username, address indexed userAddress);\r\n    event MissedSlot(uint userId, uint fromId, uint8 slot);\r\n    event ExtraSlot(uint userId, uint fromId, uint8 slot);\r\n    event Membership(uint userId, uint32 period, uint8 slot);\r\n    event Renew(uint userId, uint membership, uint time);\r\n    \r\n    constructor(address payable buzzAddress, uint buzzId, string memory buzzUsername, address busdAddess) public {\r\n        //Modifiers status\r\n        _status = _NOT_ENTERED;\r\n        state = 0;\r\n        //Slot prices\r\n        bonusTRX[1] = 200000000000000000;\r\n        bonusTRX[2] = 390000000000000000;\r\n        bonusTRX[3] = 780000000000000000;\r\n        bonusTRX[4] = 1560000000000000000;\r\n        bonusTRX[5] = 3130000000000000000;\r\n        //Slot prices\r\n        slotPrice[1] = 499 * decimals / 100;\r\n        slotPrice[2] = 999 * decimals / 100;\r\n        slotPrice[3] = 3999 * decimals / 100;\r\n        slotPrice[4] = 7999 * decimals / 100;\r\n        slotPrice[5] = 29999 * decimals / 100;\r\n        //Membership prices\r\n        membershipPrice[1] = 499 * decimals / 100;\r\n        membershipPrice[2] = 999 * decimals / 100;\r\n        membershipPrice[3] = 3999 * decimals / 100;\r\n        membershipPrice[4] = 7999 * decimals / 100;\r\n        membershipPrice[5] = 29999 * decimals / 100;\r\n        //Membership payouts  /15\r\n        membershipPay[1] = 332666666666666666;\r\n        membershipPay[2] = 666000000000000000;\r\n        membershipPay[3] = 2666000000000000000;\r\n        membershipPay[4] = 5332666666666666666;\r\n        membershipPay[5] = 19999333333333333333;\r\n        //Vault payouts\r\n        vaultPay[1] = 4657333333333333334;\r\n        vaultPay[2] = 9324000000000000000;\r\n        vaultPay[3] = 37324000000000000000;\r\n        vaultPay[4] = 74657333333333333334;\r\n        vaultPay[5] = 279990666666666666667;\r\n        //B4 parent and buzz percentage\r\n        uint8 percentage = 80;\r\n        for (uint8 i = 1; i <= 10; i++) {\r\n            if (i < 3) {\r\n                b4Percentage[i] = 10 * i;\r\n            } else if (i < 8) {\r\n                b4Percentage[i] = 4;\r\n            } else {\r\n                b4Percentage[i] = 5 * (i - 7);\r\n            }\r\n            percentage -= b4Percentage[i - 1];\r\n            b4buzzPercentage[i] = percentage;\r\n        }\r\n        // buzz address\r\n        buzz = buzzAddress;\r\n        // Renewal Contract\r\n        renewalAddress = buzzAddress;\r\n        // Save the user data\r\n        users[buzzAddress] = User({\r\n            id : buzzId,\r\n            sponsor : buzzAddress,\r\n            buzzVault : buzzAddress\r\n        });\r\n        // Store the buzz converts\r\n        idToAddress[buzzId] = buzzAddress;\r\n        usernameToAddress[buzzUsername] = buzzAddress;\r\n        addressToUsername[buzzAddress] = buzzUsername;\r\n        //Active all slots\r\n        for (uint8 slot = 1; slot <= LAST_SLOT; slot++) {\r\n            users[buzzAddress].activeB4Slots[slot] = true;\r\n            users[buzzAddress].b4[slot].currentSponsor = buzzAddress;\r\n            users[buzzAddress].b4[slot].currentParent = buzzAddress;\r\n            users[buzzAddress].b4[slot].memCount = 1;\r\n        }\r\n        // Emit the buzz registration event\r\n        emit Registration(buzzId, 0);\r\n\r\n        //Init BUSD interface\r\n        BUSD = BUSDInterface(busdAddess);\r\n    }\r\n    \r\n    //Fallback function\r\n    fallback() external payable{\r\n        revert();\r\n    }\r\n    //Registration for B4 slot\r\n    function registrationExt(address sponsorAddress,uint userId, string calldata username) external payable returns (bool) {\r\n        require(msg.sender == buzzerangAddress, \"Only can register with Buzzerang Contract\");\r\n        registration(tx.origin, sponsorAddress,userId,username);\r\n        return true;\r\n    }\r\n    // Activate user subscription\r\n    function activationExt(uint8 membership) external payable nonReEntrant maintenance returns (bool) {\r\n        require(msg.sender == tx.origin, \"Smart Contract is not an user\");\r\n        activateMembership(tx.origin, membership);\r\n        return true;\r\n    }\r\n    // Activate user subscription only for user vault\r\n    function activationVault(uint8 membership) external payable returns (uint) {\r\n        require(msg.sender == users[tx.origin].buzzVault, \"Only can activate an register user\");\r\n        activateMembership(tx.origin, membership);\r\n        return membershipPrice[membership];\r\n    }\r\n    // Activate user subscription with the balance of the user vault\r\n    function activationVaultExt(uint8 membership) external payable nonReEntrant maintenance returns (bool) {\r\n        require(msg.sender == tx.origin, \"Only an user can activate vault\");\r\n        require(isUserExists(tx.origin), \"Only can activate with Buzzerang Contract\");\r\n        require(membership <= LAST_SLOT && membership >= 1, \"Incorrect membership\");\r\n        require(BUSD.balanceOf(msg.sender) + getMembershipBalance(tx.origin, membership) >= membershipPrice[membership], \"Incorrect membership amount\");\r\n        B4VaultUser(users[tx.origin].buzzVault).storeVaultTRX.value(slotPrice[membership])(membership);\r\n        B4VaultUser(users[tx.origin].buzzVault).activeMembership(membership,membershipPrice[membership]);\r\n        return true;\r\n    }\r\n    \r\n    // Buy new slot users to any slot onlyOwner\r\n    function buySlotCreator(address userAddress, uint8 slot) external onlyOwner nonReEntrant returns (string memory) {\r\n        buyNewSlotInternal(userAddress, slot);\r\n        return \"Slot bought successfully\";\r\n    }\r\n    // Upgrade user to any slot\r\n    function buyNewSlot(uint8 slot) external payable nonReEntrant maintenance returns (string memory) {\r\n        buyNewSlotInternal(msg.sender, slot);\r\n        return \"Slot bought successfully\";\r\n    }\r\n    // Internal upgrade user to any slot\r\n    function buyNewSlotInternal(address user, uint8 slot) private {\r\n        require(isUserExists(user), \"User is not exists. Register first.\");\r\n        if (!(msg.sender == buzz)) require(BUSD.balanceOf(msg.sender) >= slotPrice[slot], \"Invalid price\");\r\n        require(slot >= 2 && slot <= LAST_SLOT, \"Invalid slot\");\r\n        require(!users[user].activeB4Slots[slot], \"Slot already activated\");\r\n        address freeB4Sponsor = findFreeB4Sponsor(user, slot);\r\n        if(freeB4Sponsor != users[user].sponsor){\r\n            emit ExtraSlot(users[freeB4Sponsor].id, users[user].id, slot);\r\n        }\r\n        users[user].activeB4Slots[slot] = true;\r\n        users[user].b4[slot].memCount = 1;\r\n        updateB4Sponsor(user, freeB4Sponsor, slot);\r\n        emit Upgrade(users[user].id, users[freeB4Sponsor].id, slot);\r\n        globalIncome += slotPrice[slot];\r\n    }\r\n    // Register user with the sponsor address\r\n    function registration(address userAddress, address sponsorAddress, uint userId, string memory username) private {\r\n        if (!(msg.sender == buzz)) require(BUSD.balanceOf(msg.sender) >= slotPrice[1], \"Invalid registration amount\");\r\n        require(!isUserExists(userAddress), \"User already exists\");\r\n        require(isUserExists(sponsorAddress), \"Sponsor not exists\");\r\n        lastUserId++;\r\n        // Assign user first data\r\n        address buzzVault = address(new B4Vault(userAddress, address(this)));\r\n        users[userAddress] = User({\r\n            id : userId,\r\n            sponsor : sponsorAddress,\r\n            buzzVault : buzzVault\r\n        });\r\n        idToAddress[userId] = userAddress;\r\n        usernameToAddress[username] = userAddress;\r\n        addressToUsername[userAddress] = username;\r\n        users[userAddress].sponsor = sponsorAddress;\r\n        users[userAddress].activeB4Slots[1] = true;\r\n        users[userAddress].b4[1].memCount = 1;\r\n        updateB4Sponsor(userAddress, sponsorAddress, 1);\r\n        emit Registration(users[userAddress].id, users[sponsorAddress].id);\r\n        emit Username(username,userAddress);\r\n    }\r\n\r\n    function updateB4Sponsor(address userAddress, address sponsorAddress, uint8 slot) private {\r\n        users[userAddress].b4[slot].currentSponsor = sponsorAddress;\r\n        uint32 currentId = getB4FreeID(sponsorAddress, slot);\r\n        if (currentId > 3) {\r\n            if (currentId % 3 == 1) {\r\n                users[userAddress].b4[slot].currentParent = users[sponsorAddress].b4[slot].referrals[(currentId - 1) / 3];\r\n                users[userAddress].b4[slot].currentId = 1;\r\n            } else if (currentId % 3 == 2) {\r\n                users[userAddress].b4[slot].currentParent = users[sponsorAddress].b4[slot].referrals[(currentId - 2) / 3];\r\n                users[userAddress].b4[slot].currentId = 2;\r\n            } else {\r\n                users[userAddress].b4[slot].currentParent = users[sponsorAddress].b4[slot].referrals[(currentId - 3) / 3];\r\n                users[userAddress].b4[slot].currentId = 3;\r\n            }\r\n        } else {\r\n            if (currentId == 0) {\r\n                return updateB4Sponsor(userAddress, users[sponsorAddress].b4[slot].referrals[1], slot);\r\n            }\r\n            users[userAddress].b4[slot].currentParent = sponsorAddress;\r\n            users[userAddress].b4[slot].currentId = currentId;\r\n        }\r\n        address parent = users[userAddress].b4[slot].currentParent;\r\n        currentId = users[userAddress].b4[slot].currentId;\r\n        uint income = 0;\r\n        uint32 countID = 0;\r\n        if(sponsorAddress != buzz){\r\n            if (getMembershipBalance(sponsorAddress,slot) >= membershipPrice[slot] && users[sponsorAddress].membershipTime[slot] >= now) {\r\n                income = (slotPrice[slot] * 20) / 100;\r\n                balances[sponsorAddress][1][slot] += income;\r\n                sendTrxDividends(sponsorAddress,income);\r\n            } else {\r\n                B4VaultUser(users[sponsorAddress].buzzVault).storeVaultTRX.value((slotPrice[slot] * 20) / 100)(slot);\r\n            }\r\n        }else{\r\n            sendTrxDividends(buzz,(slotPrice[slot] * 20) / 100);\r\n        }\r\n        for (uint8 i = 1; i <= 10; i++) {\r\n            countID += pow(3, i - 1) * currentId;\r\n            users[parent].b4[slot].referrals[countID] = userAddress;\r\n            users[parent].b4[slot].countReferrals += 1;\r\n            if (parent == buzz) {\r\n                return sendTrxDividends(buzz,(slotPrice[slot] * b4buzzPercentage[i]) / 100);\r\n            } else {\r\n                if (getMembershipBalance(parent,slot) >= membershipPrice[slot] + trxCost && users[parent].membershipTime[slot] >= now) {\r\n                    income = (slotPrice[slot] * b4Percentage[i]) / 100;\r\n                    balances[parent][1][slot] += income;\r\n                    if(renew[userAddress] == 0){\r\n                        renew[userAddress] = 1;\r\n                        emit Renew(users[userAddress].id,slot,users[userAddress].membershipTime[slot]);\r\n                    }\r\n                    sendTrxDividends(parent, income);\r\n                } else {\r\n                    B4VaultUser(users[parent].buzzVault).storeVaultTRX.value((slotPrice[slot] * b4Percentage[i]) / 100)(slot);\r\n                }\r\n                emit Placement(users[userAddress].id,users[parent].id,slot,countID);\r\n            }\r\n            currentId = users[parent].b4[slot].currentId;\r\n            parent = users[parent].b4[slot].currentParent;\r\n        }\r\n    }\r\n\r\n    // Register user with the sponsor address\r\n    function activateMembership(address userAddress, uint8 slot) private {\r\n        if (!(msg.sender == buzz)) {\r\n            require(BUSD.balanceOf(msg.sender) >= membershipPrice[slot], \"Invalid membership amount\");\r\n        }\r\n        require(isUserExists(userAddress), \"User not exists\");\r\n        require(slot >= 1 && slot <= LAST_SLOT, \"Invalid slot\");\r\n        require(users[userAddress].activeB4Slots[slot], \"Slot not activated\");\r\n        if (users[userAddress].membershipTime[slot] != 0) {\r\n            require(now > users[userAddress].membershipTime[slot] - 3 days, \"Membership is active\");\r\n        }\r\n\r\n        if (now > users[userAddress].membershipTime[slot]) {\r\n            users[userAddress].membershipTime[slot] = now;\r\n        }\r\n        users[userAddress].membershipTime[slot] += 30 days;\r\n        assert(users[userAddress].membershipTime[slot] >= (now + 30 days));\r\n        if (!users[userAddress].activeMembershipSlots[slot]) {\r\n            users[userAddress].activeMembershipSlots[slot] = true;\r\n        }\r\n        renew[userAddress] = 0;\r\n        users[userAddress].period[slot] += 1;\r\n        uint32 period = users[userAddress].period[slot];\r\n        address parent = users[userAddress].b4[slot].currentParent;\r\n        address sponsor = users[userAddress].b4[slot].currentSponsor;\r\n        uint balancing = vaultPay[slot];\r\n        for (uint8 level = 1; level <= 10; level++) {\r\n            users[parent].b4[slot].membershipActive[period][level + ((slot - 1) * 10)] += 1;\r\n            if (parent == buzz) {\r\n                  sendTrxDividends(buzz,membershipPay[slot]);\r\n            } else {\r\n                if (users[parent].membershipTime[slot] >= now) {\r\n                    if (getMembershipBalance(parent,slot) >= membershipPrice[slot] + trxCost) {\r\n                        balances[parent][2][slot] += membershipPay[slot];\r\n                        if(renew[userAddress] == 0){\r\n                            renew[userAddress] = 1;\r\n                            emit Renew(users[userAddress].id,slot,users[userAddress].membershipTime[slot]);\r\n                        }\r\n                        sendTrxDividends(parent,membershipPay[slot]);\r\n                    } else {\r\n                        B4VaultUser(users[parent].buzzVault).storeVaultTRX.value(membershipPay[slot])(slot);\r\n                    }\r\n                } else {\r\n                    balancing += membershipPay[slot];\r\n                }\r\n            }\r\n            parent = users[parent].b4[slot].currentParent;\r\n        }\r\n        sendTrxDividends(vaultAddress,balancing);\r\n        emit Membership(users[userAddress].id, period, slot);\r\n        globalIncome += slotPrice[slot];\r\n    }\r\n    //Utils\r\n    function pow(uint32 base, uint32 exponent) private pure returns (uint32) {\r\n        if (exponent == 0) {\r\n            return 1;\r\n        }\r\n        else if (exponent == 1) {\r\n            return base;\r\n        }\r\n        else if (base == 0 && exponent != 0) {\r\n            return 0;\r\n        }\r\n        else {\r\n            return base ** exponent;\r\n        }\r\n    }\r\n    function getB4FreeID(address sponsorAddress, uint8 slot) private returns (uint32){\r\n        for (uint32 b4Id = users[sponsorAddress].b4[slot].memCount; b4Id < 88573; b4Id++) {\r\n            if (users[sponsorAddress].b4[slot].referrals[b4Id] == address(0)) {\r\n                users[sponsorAddress].b4[slot].memCount = b4Id + 1;\r\n                return b4Id;\r\n            }\r\n        }\r\n        return 0;\r\n    }\r\n\r\n    function findFreeB4Sponsor(address userAddress, uint8 slot) public returns (address) {\r\n        while (true) {\r\n            if (users[users[userAddress].sponsor].activeB4Slots[slot]) {\r\n                break;\r\n            }\r\n            emit MissedSlot(users[users[userAddress].sponsor].id, users[userAddress].id, slot);\r\n            userAddress = users[userAddress].sponsor;\r\n        }\r\n        return users[userAddress].sponsor;\r\n    }\r\n    // Search if the user exists in the Smart Tron platform\r\n    function isUserExists(address user) public view returns (bool) {\r\n        return (users[user].id != 0);\r\n    }\r\n    //Generate the payout for the B4 program\r\n    function sendTrxDividends(address receiver,uint amount) private {\r\n        if (msg.sender != buzz)\r\n        {\r\n            bool success =  BUSD.transfer(receiver, amount);\r\n            require(success, \"Insufficient Gas.\");\r\n        }\r\n    }\r\n\r\n    function getMembershipBalance(address userAddress, uint8 membership) public view returns (uint){\r\n        return B4VaultUser(users[userAddress].buzzVault).getMembershipBalance(membership);\r\n    }\r\n    \r\n\r\n    function getTotalBalance(uint id) external view returns(uint totalBalance){\r\n        address userAddress = idToAddress[id];\r\n        for(uint program = 1; program < 3; program++){\r\n            for (uint8 slot = 1; slot <= LAST_SLOT; slot++) {\r\n                totalBalance += balances[userAddress][program][slot];\r\n            }\r\n        }\r\n        for (uint8 slot = 1; slot <= LAST_SLOT; slot++) {\r\n            totalBalance += getMembershipBalance(userAddress,slot);\r\n        }\r\n        return totalBalance;\r\n    }\r\n\r\n}\r\n\r\ninterface BUSDInterface {\r\n    function balanceOf(address account) external view returns (uint);\r\n    function transfer(address to, uint amount) external returns (bool);\r\n}",
  "sourcePath": "I:\\Users\\Luis\\Documents\\GitHub\\B4Buzz\\contracts\\BuzzerangB4.sol",
  "compiler": {
    "name": "solc",
    "version": "0.6.12+commit.27d51765.Emscripten.clang"
  },
  "schemaVersion": "3.3.4",
  "updatedAt": "2021-08-04T18:54:35.339Z",
  "devdoc": {
    "kind": "dev",
    "methods": {},
    "version": 1
  },
  "userdoc": {
    "kind": "user",
    "methods": {},
    "version": 1
  }
}